{
  "_format": "hh-sol-artifact-1",
  "contractName": "SecretNFT",
  "sourceName": "contracts/SecretNFT.sol",
  "abi": [
    {
      "inputs": [
        {
          "internalType": "address",
          "name": "initialOwner",
          "type": "address"
        }
      ],
      "stateMutability": "nonpayable",
      "type": "constructor"
    },
    {
      "inputs": [
        {
          "internalType": "address",
          "name": "sender",
          "type": "address"
        },
        {
          "internalType": "uint256",
          "name": "tokenId",
          "type": "uint256"
        },
        {
          "internalType": "address",
          "name": "owner",
          "type": "address"
        }
      ],
      "name": "ERC721IncorrectOwner",
      "type": "error"
    },
    {
      "inputs": [
        {
          "internalType": "address",
          "name": "operator",
          "type": "address"
        },
        {
          "internalType": "uint256",
          "name": "tokenId",
          "type": "uint256"
        }
      ],
      "name": "ERC721InsufficientApproval",
      "type": "error"
    },
    {
      "inputs": [
        {
          "internalType": "address",
          "name": "approver",
          "type": "address"
        }
      ],
      "name": "ERC721InvalidApprover",
      "type": "error"
    },
    {
      "inputs": [
        {
          "internalType": "address",
          "name": "operator",
          "type": "address"
        }
      ],
      "name": "ERC721InvalidOperator",
      "type": "error"
    },
    {
      "inputs": [
        {
          "internalType": "address",
          "name": "owner",
          "type": "address"
        }
      ],
      "name": "ERC721InvalidOwner",
      "type": "error"
    },
    {
      "inputs": [
        {
          "internalType": "address",
          "name": "receiver",
          "type": "address"
        }
      ],
      "name": "ERC721InvalidReceiver",
      "type": "error"
    },
    {
      "inputs": [
        {
          "internalType": "address",
          "name": "sender",
          "type": "address"
        }
      ],
      "name": "ERC721InvalidSender",
      "type": "error"
    },
    {
      "inputs": [
        {
          "internalType": "uint256",
          "name": "tokenId",
          "type": "uint256"
        }
      ],
      "name": "ERC721NonexistentToken",
      "type": "error"
    },
    {
      "inputs": [
        {
          "internalType": "address",
          "name": "owner",
          "type": "address"
        }
      ],
      "name": "OwnableInvalidOwner",
      "type": "error"
    },
    {
      "inputs": [
        {
          "internalType": "address",
          "name": "account",
          "type": "address"
        }
      ],
      "name": "OwnableUnauthorizedAccount",
      "type": "error"
    },
    {
      "anonymous": false,
      "inputs": [
        {
          "indexed": true,
          "internalType": "address",
          "name": "owner",
          "type": "address"
        },
        {
          "indexed": true,
          "internalType": "address",
          "name": "approved",
          "type": "address"
        },
        {
          "indexed": true,
          "internalType": "uint256",
          "name": "tokenId",
          "type": "uint256"
        }
      ],
      "name": "Approval",
      "type": "event"
    },
    {
      "anonymous": false,
      "inputs": [
        {
          "indexed": true,
          "internalType": "address",
          "name": "owner",
          "type": "address"
        },
        {
          "indexed": true,
          "internalType": "address",
          "name": "operator",
          "type": "address"
        },
        {
          "indexed": false,
          "internalType": "bool",
          "name": "approved",
          "type": "bool"
        }
      ],
      "name": "ApprovalForAll",
      "type": "event"
    },
    {
      "anonymous": false,
      "inputs": [
        {
          "indexed": false,
          "internalType": "uint256",
          "name": "_fromTokenId",
          "type": "uint256"
        },
        {
          "indexed": false,
          "internalType": "uint256",
          "name": "_toTokenId",
          "type": "uint256"
        }
      ],
      "name": "BatchMetadataUpdate",
      "type": "event"
    },
    {
      "anonymous": false,
      "inputs": [
        {
          "indexed": false,
          "internalType": "uint256",
          "name": "_tokenId",
          "type": "uint256"
        }
      ],
      "name": "MetadataUpdate",
      "type": "event"
    },
    {
      "anonymous": false,
      "inputs": [
        {
          "indexed": true,
          "internalType": "address",
          "name": "previousOwner",
          "type": "address"
        },
        {
          "indexed": true,
          "internalType": "address",
          "name": "newOwner",
          "type": "address"
        }
      ],
      "name": "OwnershipTransferred",
      "type": "event"
    },
    {
      "anonymous": false,
      "inputs": [
        {
          "indexed": true,
          "internalType": "address",
          "name": "from",
          "type": "address"
        },
        {
          "indexed": true,
          "internalType": "address",
          "name": "to",
          "type": "address"
        },
        {
          "indexed": true,
          "internalType": "uint256",
          "name": "tokenId",
          "type": "uint256"
        }
      ],
      "name": "Transfer",
      "type": "event"
    },
    {
      "inputs": [
        {
          "internalType": "address",
          "name": "to",
          "type": "address"
        },
        {
          "internalType": "uint256",
          "name": "tokenId",
          "type": "uint256"
        }
      ],
      "name": "approve",
      "outputs": [],
      "stateMutability": "nonpayable",
      "type": "function"
    },
    {
      "inputs": [
        {
          "internalType": "address",
          "name": "owner",
          "type": "address"
        }
      ],
      "name": "balanceOf",
      "outputs": [
        {
          "internalType": "uint256",
          "name": "",
          "type": "uint256"
        }
      ],
      "stateMutability": "view",
      "type": "function"
    },
    {
      "inputs": [
        {
          "internalType": "uint256",
          "name": "tokenId",
          "type": "uint256"
        }
      ],
      "name": "getApproved",
      "outputs": [
        {
          "internalType": "address",
          "name": "",
          "type": "address"
        }
      ],
      "stateMutability": "view",
      "type": "function"
    },
    {
      "inputs": [
        {
          "internalType": "address",
          "name": "owner",
          "type": "address"
        },
        {
          "internalType": "address",
          "name": "operator",
          "type": "address"
        }
      ],
      "name": "isApprovedForAll",
      "outputs": [
        {
          "internalType": "bool",
          "name": "",
          "type": "bool"
        }
      ],
      "stateMutability": "view",
      "type": "function"
    },
    {
      "inputs": [],
      "name": "name",
      "outputs": [
        {
          "internalType": "string",
          "name": "",
          "type": "string"
        }
      ],
      "stateMutability": "view",
      "type": "function"
    },
    {
      "inputs": [],
      "name": "owner",
      "outputs": [
        {
          "internalType": "address",
          "name": "",
          "type": "address"
        }
      ],
      "stateMutability": "view",
      "type": "function"
    },
    {
      "inputs": [
        {
          "internalType": "uint256",
          "name": "tokenId",
          "type": "uint256"
        }
      ],
      "name": "ownerOf",
      "outputs": [
        {
          "internalType": "address",
          "name": "",
          "type": "address"
        }
      ],
      "stateMutability": "view",
      "type": "function"
    },
    {
      "inputs": [],
      "name": "renounceOwnership",
      "outputs": [],
      "stateMutability": "nonpayable",
      "type": "function"
    },
    {
      "inputs": [
        {
          "internalType": "address",
          "name": "to",
          "type": "address"
        },
        {
          "internalType": "string",
          "name": "uri",
          "type": "string"
        }
      ],
      "name": "safeMint",
      "outputs": [],
      "stateMutability": "nonpayable",
      "type": "function"
    },
    {
      "inputs": [
        {
          "internalType": "address",
          "name": "from",
          "type": "address"
        },
        {
          "internalType": "address",
          "name": "to",
          "type": "address"
        },
        {
          "internalType": "uint256",
          "name": "tokenId",
          "type": "uint256"
        }
      ],
      "name": "safeTransferFrom",
      "outputs": [],
      "stateMutability": "nonpayable",
      "type": "function"
    },
    {
      "inputs": [
        {
          "internalType": "address",
          "name": "from",
          "type": "address"
        },
        {
          "internalType": "address",
          "name": "to",
          "type": "address"
        },
        {
          "internalType": "uint256",
          "name": "tokenId",
          "type": "uint256"
        },
        {
          "internalType": "bytes",
          "name": "data",
          "type": "bytes"
        }
      ],
      "name": "safeTransferFrom",
      "outputs": [],
      "stateMutability": "nonpayable",
      "type": "function"
    },
    {
      "inputs": [
        {
          "internalType": "address",
          "name": "operator",
          "type": "address"
        },
        {
          "internalType": "bool",
          "name": "approved",
          "type": "bool"
        }
      ],
      "name": "setApprovalForAll",
      "outputs": [],
      "stateMutability": "nonpayable",
      "type": "function"
    },
    {
      "inputs": [
        {
          "internalType": "bytes4",
          "name": "interfaceId",
          "type": "bytes4"
        }
      ],
      "name": "supportsInterface",
      "outputs": [
        {
          "internalType": "bool",
          "name": "",
          "type": "bool"
        }
      ],
      "stateMutability": "view",
      "type": "function"
    },
    {
      "inputs": [],
      "name": "symbol",
      "outputs": [
        {
          "internalType": "string",
          "name": "",
          "type": "string"
        }
      ],
      "stateMutability": "view",
      "type": "function"
    },
    {
      "inputs": [
        {
          "internalType": "uint256",
          "name": "tokenId",
          "type": "uint256"
        }
      ],
      "name": "tokenURI",
      "outputs": [
        {
          "internalType": "string",
          "name": "",
          "type": "string"
        }
      ],
      "stateMutability": "view",
      "type": "function"
    },
    {
      "inputs": [
        {
          "internalType": "address",
          "name": "owner",
          "type": "address"
        }
      ],
      "name": "tokensOfOwner",
      "outputs": [
        {
          "internalType": "uint256[]",
          "name": "",
          "type": "uint256[]"
        }
      ],
      "stateMutability": "view",
      "type": "function"
    },
    {
      "inputs": [
        {
          "internalType": "address",
          "name": "from",
          "type": "address"
        },
        {
          "internalType": "address",
          "name": "to",
          "type": "address"
        },
        {
          "internalType": "uint256",
          "name": "tokenId",
          "type": "uint256"
        }
      ],
      "name": "transferFrom",
      "outputs": [],
      "stateMutability": "nonpayable",
      "type": "function"
    },
    {
      "inputs": [
        {
          "internalType": "address",
          "name": "newOwner",
          "type": "address"
        }
      ],
      "name": "transferOwnership",
      "outputs": [],
      "stateMutability": "nonpayable",
      "type": "function"
    }
  ],
  "bytecode": "0x60806040523480156200001157600080fd5b50604051620019943803806200199483398101604081905262000034916200012b565b806040518060400160405280600981526020016814d958dc995d13919560ba1b815250604051806040016040528060048152602001631cd3919560e21b815250816000908162000085919062000202565b50600162000094828262000202565b5050506001600160a01b038116620000c657604051631e4fbdf760e01b81526000600482015260240160405180910390fd5b620000d181620000d9565b5050620002ce565b600780546001600160a01b038381166001600160a01b0319831681179093556040519116919082907f8be0079c531659141344cd1fd0a4f28419497f9722a3daafe3b4186f6b6457e090600090a35050565b6000602082840312156200013e57600080fd5b81516001600160a01b03811681146200015657600080fd5b9392505050565b634e487b7160e01b600052604160045260246000fd5b600181811c908216806200018857607f821691505b602082108103620001a957634e487b7160e01b600052602260045260246000fd5b50919050565b601f821115620001fd57600081815260208120601f850160051c81016020861015620001d85750805b601f850160051c820191505b81811015620001f957828155600101620001e4565b5050505b505050565b81516001600160401b038111156200021e576200021e6200015d565b62000236816200022f845462000173565b84620001af565b602080601f8311600181146200026e5760008415620002555750858301515b600019600386901b1c1916600185901b178555620001f9565b600085815260208120601f198616915b828110156200029f578886015182559484019460019091019084016200027e565b5085821015620002be5787850151600019600388901b60f8161c191681555b5050505050600190811b01905550565b6116b680620002de6000396000f3fe608060405234801561001057600080fd5b50600436106101165760003560e01c80638462151c116100a2578063b88d4fde11610071578063b88d4fde14610246578063c87b56dd14610259578063d204c45e1461026c578063e985e9c51461027f578063f2fde38b1461029257600080fd5b80638462151c146101fa5780638da5cb5b1461021a57806395d89b411461022b578063a22cb4651461023357600080fd5b806323b872dd116100e957806323b872dd1461019857806342842e0e146101ab5780636352211e146101be57806370a08231146101d1578063715018a6146101f257600080fd5b806301ffc9a71461011b57806306fdde0314610143578063081812fc14610158578063095ea7b314610183575b600080fd5b61012e6101293660046110fd565b6102a5565b60405190151581526020015b60405180910390f35b61014b6102b6565b60405161013a919061116a565b61016b61016636600461117d565b610348565b6040516001600160a01b03909116815260200161013a565b6101966101913660046111ab565b610371565b005b6101966101a63660046111d7565b610380565b6101966101b93660046111d7565b610410565b61016b6101cc36600461117d565b610430565b6101e46101df366004611218565b61043b565b60405190815260200161013a565b610196610483565b61020d610208366004611218565b610497565b60405161013a9190611235565b6007546001600160a01b031661016b565b61014b61066d565b610196610241366004611279565b61067c565b610196610254366004611343565b610687565b61014b61026736600461117d565b61069e565b61019661027a3660046113c3565b6106a9565b61012e61028d366004611427565b6106dc565b6101966102a0366004611218565b61070a565b60006102b082610748565b92915050565b6060600080546102c590611455565b80601f01602080910402602001604051908101604052809291908181526020018280546102f190611455565b801561033e5780601f106103135761010080835404028352916020019161033e565b820191906000526020600020905b81548152906001019060200180831161032157829003601f168201915b5050505050905090565b60006103538261076d565b506000828152600460205260409020546001600160a01b03166102b0565b61037c8282336107a6565b5050565b6001600160a01b0382166103af57604051633250574960e11b8152600060048201526024015b60405180910390fd5b60006103bc8383336107b3565b9050836001600160a01b0316816001600160a01b03161461040a576040516364283d7b60e01b81526001600160a01b03808616600483015260248201849052821660448201526064016103a6565b50505050565b61042b83838360405180602001604052806000815250610687565b505050565b60006102b08261076d565b60006001600160a01b038216610467576040516322718ad960e21b8152600060048201526024016103a6565b506001600160a01b031660009081526003602052604090205490565b61048b6108ac565b61049560006108d9565b565b606060006104a48361043b565b905060008167ffffffffffffffff8111156104c1576104c16112b7565b6040519080825280602002602001820160405280156104ea578160200160208202803683370190505b509050816000036104fc579392505050565b6000805b6008548110156105c7576040516331a9108f60e11b8152600481018290523090636352211e90602401602060405180830381865afa925050508015610562575060408051601f3d908101601f1916820190925261055f9181019061148f565b60015b156105b55750856001600160a01b031661057b82610430565b6001600160a01b0316036105b5578083838151811061059c5761059c6114ac565b6020908102919091010152816105b1816114c2565b9250505b806105bf816114c2565b915050610500565b5060008167ffffffffffffffff8111156105e3576105e36112b7565b60405190808252806020026020018201604052801561060c578160200160208202803683370190505b50905060005b828110156106635783818151811061062c5761062c6114ac565b6020026020010151828281518110610646576106466114ac565b60209081029190910101528061065b816114c2565b915050610612565b5095945050505050565b6060600180546102c590611455565b61037c33838361092b565b610692848484610380565b61040a848484846109ca565b60606102b082610af3565b6106b16108ac565b60088054600091826106c2836114c2565b9190505590506106d28382610c04565b61042b8183610c1e565b6001600160a01b03918216600090815260056020908152604080832093909416825291909152205460ff1690565b6107126108ac565b6001600160a01b03811661073c57604051631e4fbdf760e01b8152600060048201526024016103a6565b610745816108d9565b50565b60006001600160e01b03198216632483248360e11b14806102b057506102b082610c6e565b6000818152600260205260408120546001600160a01b0316806102b057604051637e27328960e01b8152600481018490526024016103a6565b61042b8383836001610cbe565b6000828152600260205260408120546001600160a01b03908116908316156107e0576107e0818486610dc4565b6001600160a01b0381161561081e576107fd600085600080610cbe565b6001600160a01b038116600090815260036020526040902080546000190190555b6001600160a01b0385161561084d576001600160a01b0385166000908152600360205260409020805460010190555b60008481526002602052604080822080546001600160a01b0319166001600160a01b0389811691821790925591518793918516917fddf252ad1be2c89b69c2b068fc378daa952ba7f163c4a11628f55a4df523b3ef91a4949350505050565b6007546001600160a01b031633146104955760405163118cdaa760e01b81523360048201526024016103a6565b600780546001600160a01b038381166001600160a01b0319831681179093556040519116919082907f8be0079c531659141344cd1fd0a4f28419497f9722a3daafe3b4186f6b6457e090600090a35050565b6001600160a01b03821661095d57604051630b61174360e31b81526001600160a01b03831660048201526024016103a6565b6001600160a01b03838116600081815260056020908152604080832094871680845294825291829020805460ff191686151590811790915591519182527f17307eab39ab6107e8899845ad3d59bd9653f200f220920489ca2b5937696c31910160405180910390a3505050565b6001600160a01b0383163b1561040a57604051630a85bd0160e11b81526001600160a01b0384169063150b7a0290610a0c9033908890879087906004016114e9565b6020604051808303816000875af1925050508015610a47575060408051601f3d908101601f19168201909252610a4491810190611526565b60015b610ab0573d808015610a75576040519150601f19603f3d011682016040523d82523d6000602084013e610a7a565b606091505b508051600003610aa857604051633250574960e11b81526001600160a01b03851660048201526024016103a6565b805181602001fd5b6001600160e01b03198116630a85bd0160e11b14610aec57604051633250574960e11b81526001600160a01b03851660048201526024016103a6565b5050505050565b6060610afe8261076d565b5060008281526006602052604081208054610b1890611455565b80601f0160208091040260200160405190810160405280929190818152602001828054610b4490611455565b8015610b915780601f10610b6657610100808354040283529160200191610b91565b820191906000526020600020905b815481529060010190602001808311610b7457829003601f168201915b505050505090506000610baf60408051602081019091526000815290565b90508051600003610bc1575092915050565b815115610bf3578082604051602001610bdb929190611543565b60405160208183030381529060405292505050919050565b610bfc84610e28565b949350505050565b61037c828260405180602001604052806000815250610e9d565b6000828152600660205260409020610c3682826115c0565b506040518281527ff8e1a15aba9398e019f0b49df1a4fde98ee17ae345cb5f6b5e2c27f5033e8ce79060200160405180910390a15050565b60006001600160e01b031982166380ac58cd60e01b1480610c9f57506001600160e01b03198216635b5e139f60e01b145b806102b057506301ffc9a760e01b6001600160e01b03198316146102b0565b8080610cd257506001600160a01b03821615155b15610d94576000610ce28461076d565b90506001600160a01b03831615801590610d0e5750826001600160a01b0316816001600160a01b031614155b8015610d215750610d1f81846106dc565b155b15610d4a5760405163a9fbf51f60e01b81526001600160a01b03841660048201526024016103a6565b8115610d925783856001600160a01b0316826001600160a01b03167f8c5be1e5ebec7d5bd14f71427d1e84f3dd0314c0f7b2291e5b200ac8c7c3b92560405160405180910390a45b505b5050600090815260046020526040902080546001600160a01b0319166001600160a01b0392909216919091179055565b610dcf838383610eb4565b61042b576001600160a01b038316610dfd57604051637e27328960e01b8152600481018290526024016103a6565b60405163177e802f60e01b81526001600160a01b0383166004820152602481018290526044016103a6565b6060610e338261076d565b506000610e4b60408051602081019091526000815290565b90506000815111610e6b5760405180602001604052806000815250610e96565b80610e7584610f17565b604051602001610e86929190611543565b6040516020818303038152906040525b9392505050565b610ea78383610faa565b61042b60008484846109ca565b60006001600160a01b03831615801590610bfc5750826001600160a01b0316846001600160a01b03161480610eee5750610eee84846106dc565b80610bfc5750506000908152600460205260409020546001600160a01b03908116911614919050565b60606000610f248361100f565b600101905060008167ffffffffffffffff811115610f4457610f446112b7565b6040519080825280601f01601f191660200182016040528015610f6e576020820181803683370190505b5090508181016020015b600019016f181899199a1a9b1b9c1cb0b131b232b360811b600a86061a8153600a8504945084610f7857509392505050565b6001600160a01b038216610fd457604051633250574960e11b8152600060048201526024016103a6565b6000610fe2838360006107b3565b90506001600160a01b0381161561042b576040516339e3563760e11b8152600060048201526024016103a6565b60008072184f03e93ff9f4daa797ed6e38ed64bf6a1f0160401b831061104e5772184f03e93ff9f4daa797ed6e38ed64bf6a1f0160401b830492506040015b6d04ee2d6d415b85acef8100000000831061107a576d04ee2d6d415b85acef8100000000830492506020015b662386f26fc10000831061109857662386f26fc10000830492506010015b6305f5e10083106110b0576305f5e100830492506008015b61271083106110c457612710830492506004015b606483106110d6576064830492506002015b600a83106102b05760010192915050565b6001600160e01b03198116811461074557600080fd5b60006020828403121561110f57600080fd5b8135610e96816110e7565b60005b8381101561113557818101518382015260200161111d565b50506000910152565b6000815180845261115681602086016020860161111a565b601f01601f19169290920160200192915050565b602081526000610e96602083018461113e565b60006020828403121561118f57600080fd5b5035919050565b6001600160a01b038116811461074557600080fd5b600080604083850312156111be57600080fd5b82356111c981611196565b946020939093013593505050565b6000806000606084860312156111ec57600080fd5b83356111f781611196565b9250602084013561120781611196565b929592945050506040919091013590565b60006020828403121561122a57600080fd5b8135610e9681611196565b6020808252825182820181905260009190848201906040850190845b8181101561126d57835183529284019291840191600101611251565b50909695505050505050565b6000806040838503121561128c57600080fd5b823561129781611196565b9150602083013580151581146112ac57600080fd5b809150509250929050565b634e487b7160e01b600052604160045260246000fd5b600067ffffffffffffffff808411156112e8576112e86112b7565b604051601f8501601f19908116603f01168101908282118183101715611310576113106112b7565b8160405280935085815286868601111561132957600080fd5b858560208301376000602087830101525050509392505050565b6000806000806080858703121561135957600080fd5b843561136481611196565b9350602085013561137481611196565b925060408501359150606085013567ffffffffffffffff81111561139757600080fd5b8501601f810187136113a857600080fd5b6113b7878235602084016112cd565b91505092959194509250565b600080604083850312156113d657600080fd5b82356113e181611196565b9150602083013567ffffffffffffffff8111156113fd57600080fd5b8301601f8101851361140e57600080fd5b61141d858235602084016112cd565b9150509250929050565b6000806040838503121561143a57600080fd5b823561144581611196565b915060208301356112ac81611196565b600181811c9082168061146957607f821691505b60208210810361148957634e487b7160e01b600052602260045260246000fd5b50919050565b6000602082840312156114a157600080fd5b8151610e9681611196565b634e487b7160e01b600052603260045260246000fd5b6000600182016114e257634e487b7160e01b600052601160045260246000fd5b5060010190565b6001600160a01b038581168252841660208201526040810183905260806060820181905260009061151c9083018461113e565b9695505050505050565b60006020828403121561153857600080fd5b8151610e96816110e7565b6000835161155581846020880161111a565b83519083019061156981836020880161111a565b01949350505050565b601f82111561042b57600081815260208120601f850160051c810160208610156115995750805b601f850160051c820191505b818110156115b8578281556001016115a5565b505050505050565b815167ffffffffffffffff8111156115da576115da6112b7565b6115ee816115e88454611455565b84611572565b602080601f831160018114611623576000841561160b5750858301515b600019600386901b1c1916600185901b1785556115b8565b600085815260208120601f198616915b8281101561165257888601518255948401946001909101908401611633565b50858210156116705787850151600019600388901b60f8161c191681555b5050505050600190811b0190555056fea264697066735822122036627121e896d6939704b195d72693865df98ff05bcfacd842cf26480635f6a964736f6c63430008140033",
  "linkReferences": {},
  "deployedLinkReferences": {}
}